:100000000C942A000C9447000C9447000C94470071
:100010000C9447000C9447000C9447000C94470044
:100020000C9447000C9447000C9475030C94470003
:100030000C9447000C9447000C9447000C94470024
:100040000C9447000C9447000C9447000C94470014
:100050000C94470011241FBECFE5D8E0DEBFCDBF12
:1000600010E0A0E6B0E0E6E0FDE002C005900D92F1
:10007000A437B107D9F710E0A4E7B0E001C01D92A2
:10008000A03CB107E1F70E9412030C9481060C9486
:100090000000CF93DF9300D000D0CDB7DEB79C83B4
:1000A0008B831A8219828091740090917500009759
:1000B000F9F488E390E02FEFFC0120832BE330E09C
:1000C00080917600909177004AE050E0BA010E945A
:1000D0005A06880F991F805A9F4FFC018081918199
:1000E0008095F901808388E390E02EEFFC01208366
:1000F00080917400909175008130910549F588E3F5
:1001000090E02FEFFC0120838091760090917700A2
:100110002AE030E0B9010E945A069B013A83298304
:100120002BE330E089819A814AE050E0BA010E94D5
:100130005A06880F991F805A9F4FFC018081918138
:100140008095F901808388E390E02DEFFC01208306
:100150008091740090917500019622E030E0B90121
:100160000E945A0690937500809374000F900F9030
:100170000F900F90DF91CF9108950F931F93CF931E
:10018000DF93CDB7DEB7EA970FB6F894DEBF0FBEA8
:10019000CDBF9AAF89AF82E390E0FC01108281E38A
:1001A00090E020EFFC01208382E390E02FE0FC014F
:1001B000208380E090E0A0EAB0E489879A87AB874B
:1001C000BC8769857A858B859C852BEA3AEA4AEA61
:1001D00050E40E94F705DC01CB018D879E87AF8735
:1001E000B88B11E06D857E858F85988920E030E0A1
:1001F00040E85FE30E94E60488230CF010E011233E
:1002000019F081E0898BA3C011E06D857E858F8513
:10021000988920E030E04FE753E40E94F305181678
:100220000CF010E0112309F489C069857A858B856B
:100230009C8520E030E04AE754E40E94EA04DC01B7
:10024000CB018A8B9B8BAC8BBD8B6A897B898C891C
:100250009D8920E030E04AE755E40E94F705DC0183
:10026000CB018E8B9F8BA88FB98F11E06E897F8910
:10027000888D998D20E030E040E85FE30E94E6043D
:1002800088230CF010E0112329F081E090E09B8F8F
:100290008A8F46C011E06E897F89888D998D20E014
:1002A0003FEF4FE757E40E94F30518160CF010E0FB
:1002B000112361F16A897B898C899D8920E030E076
:1002C00040E251E40E94F705DC01CB01BC01CD0105
:1002D0000E945205DC01CB019B8F8A8F12C080E9FE
:1002E00091E09D8F8C8F8C8D9D8D8C01C801019725
:1002F000F1F78C011D8F0C8F8A8D9B8D01979B8F41
:100300008A8F8A8D9B8D009751F728C06E897F89CF
:10031000888D998D0E945205DC01CB019B8F8A8FBD
:100320008A8D9B8D9F8F8E8F8E8D9F8D8C01F80176
:100330003197F1F78F011F8F0E8F10C06D857E856D
:100340008F8598890E945205DC01CB01898B8989B0
:1003500088A388A1182F1A95F1F718A380E390E0DD
:10036000FC01808180958F708F8319821B821A8295
:1003700015C08F81882F90E00A8002C095958795DF
:100380000A94E2F781709070882319F08A818F5F58
:1003900089838A819B8101969B838A838A819B8141
:1003A0008430910534F382E390E0FC01108281E314
:1003B00090E02FE0FC01208382E390E020EFFC013D
:1003C000208380E090E0A0EAB0E489A39AA3ABA3E5
:1003D000BCA369A17AA18BA19CA12BEA3AEA4AEAC3
:1003E00050E40E94F705DC01CB018DA39EA3AFA3CF
:1003F000B8A711E06DA17EA18FA198A520E030E003
:1004000040E85FE30E94E60488230CF010E011232B
:1004100019F081E089A7A3C011E06DA17EA18FA191
:1004200098A520E030E04FE753E40E94F30518164A
:100430000CF010E0112309F489C069A17AA18BA105
:100440009CA120E030E04AE754E40E94EA04DC0189
:10045000CB018AA79BA7ACA7BDA76AA57BA58CA546
:100460009DA520E030E04AE755E40E94F705DC0155
:10047000CB018EA79FA7A8ABB9AB11E06EA57FA556
:1004800088A999A920E030E040E85FE30E94E604F3
:1004900088230CF010E0112329F081E090E09BAB61
:1004A0008AAB46C011E06EA57FA588A999A920E076
:1004B0003FEF4FE757E40E94F30518160CF010E0E9
:1004C000112361F16AA57BA58CA59DA520E030E0F4
:1004D00040E251E40E94F705DC01CB01BC01CD01F3
:1004E0000E945205DC01CB019BAB8AAB12C080E9B4
:1004F00091E09DAB8CAB8CA99DA98C01C8010197A3
:10050000F1F78C011DAB0CAB8AA99BA901979BABA2
:100510008AAB8AA99BA9009751F728C06EA57FA531
:1005200088A999A90E945205DC01CB019BAB8AAB3B
:100530008AA99BA99FAB8EAB8EA99FA98C01F801BC
:100540003197F1F78F011FAB0EAB10C06DA17EA1EB
:100550008FA198A50E945205DC01CB0189A789A52E
:1005600088AF88AD182F1A95F1F718AF80E390E0A7
:10057000FC018081882F90E08095909595958795D6
:100580009595879595958795959587958F7088878B
:100590001C821E821D8215C08885882F90E00D80E8
:1005A00002C0959587950A94E2F781709070882330
:1005B00019F08D818F5F8C838D819E8101969E8342
:1005C0008D838D819E818430910534F38981882FBC
:1005D00090E09C01220F331F220F331F8C81882F44
:1005E00090E0820F931F9093770080937600809124
:1005F000760090917700181619064CF480917600D9
:100600009091770004979093770080937600EA9614
:100610000FB6F894DEBF0FBECDBFDF91CF911F9113
:100620000F910895CF93DF93CDB7DEB70E945603A5
:1006300087E390E02FEFFC0120838AE390E02FEF27
:10064000FC0120838BE390E02091700030917100D9
:100650002095FC01208382E390E0FC01108281E37D
:1006600090E02FE0FC01208382E390E020EFFC018A
:10067000208329E430E080E090E064E070E0A901AC
:1006800020E030E00E9476042DEB30E081E090E045
:1006900062E370E0A90120E030E00E9476040E944D
:1006A0001D0480E090E0DF91CF910895CF93DF9318
:1006B000CDB7DEB789E590E029E530E0F90120818A
:1006C0002260FC0120838CE590E02AEFFC0120836E
:1006D00083E590E023E530E0F90120812B60FC0107
:1006E00020837894DF91CF9108951F920F920FB6D7
:1006F0000F9211242F933F934F935F936F937F93A8
:100700008F939F93AF93BF93EF93FF93CF93DF9319
:10071000CDB7DEB70E949F03DF91CF91FF91EF919C
:10072000BF91AF919F918F917F916F915F914F9109
:100730003F912F910F900FBE0F901F901895CF9360
:10074000DF9300D0CDB7DEB71A8219826BC0298142
:100750003A81C901880F991F880F991F880F991F27
:10076000820F931F82589F4FFC0180819181AC01C1
:100770004F5F5F4F29813A81C901880F991F880F08
:10078000991F880F991F820F931F82589F4FFC015A
:100790005183408329813A81C901880F991F880FAD
:1007A000991F880F991F820F931F82589F4FFC013A
:1007B0004081518129813A81C901880F991F880F91
:1007C000991F880F991F820F931F88589F4FFC0114
:1007D000808191814817590701F529813A81C90122
:1007E000880F991F880F991F880F991F820F931FD9
:1007F00080589F4F21E0FC01208329813A81C90163
:10080000880F991F880F991F880F991F820F931FB8
:1008100082589F4FFC011182108289819A81019632
:100820009A83898389819A81883091050CF48FCFCE
:100830000F900F90DF91CF910895CF93DF9300D069
:10084000CDB7DEB71A82198201C0000029813A8132
:10085000C901880F991F880F991F880F991F820F50
:10086000931F80589F4FFC018081813089F5298139
:100870003A81C901880F991F880F991F880F991F06
:10088000820F931F80589F4FFC01108229813A816B
:10089000C901880F991F880F991F880F991F820F10
:1008A000931F86589F4FFC014081518129813A81D5
:1008B000C901880F991F880F991F880F991F820FF0
:1008C000931F84589F4FFC0180819181FA01099503
:1008D00089819A8101969A83898389819A81893055
:1008E00091050CF4B2CF1A821982AFCFCF93DF9368
:1008F000CDB7DEB728970FB6F894DEBF0FBECDBFD9
:100900009A8389837C836B835E834D8338872F83AF
:1009100029813A81C901880F991F880F991F880F73
:10092000991F820F931F88589F4F2B813C81FC0198
:100930003183208329813A81C901880F991F880F4B
:10094000991F880F991F820F931F82589F4FFC0198
:100950001182108229813A81C901880F991F880F5D
:10096000991F880F991F820F931F80589F4FFC017A
:10097000108229813A81C901880F991F880F991F18
:10098000880F991F820F931F86589F4F2D813E819C
:10099000FC013183208329813A81C901880F991F85
:1009A000880F991F880F991F820F931F84589F4F9C
:1009B0002F813885FC013183208328960FB6F89467
:1009C000DEBF0FBECDBFDF91CF91089597D008F461
:1009D00081E008950CD0CDC0C5D040F0BCD030F03F
:1009E00021F45F3F19F0AEC05111F7C0B1C0D2D0B1
:1009F00098F39923C9F35523B1F3951B550BBB27E6
:100A0000AA2762177307840738F09F5F5F4F220F92
:100A1000331F441FAA1FA9F333D00E2E3AF0E0E88B
:100A200030D091505040E695001CCAF729D0FE2FD7
:100A300027D0660F771F881FBB1F26173707480769
:100A4000AB07B0E809F0BB0B802DBF01FF2793581F
:100A50005F4F2AF09E3F510568F074C0BEC05F3FF3
:100A6000ECF3983EDCF3869577956795B795F79507
:100A70009F5FC9F7880F911D9695879597F90895FF
:100A8000E1E0660F771F881FBB1F6217730784079B
:100A9000BA0720F0621B730B840BBA0BEE1F88F7AA
:100AA000E09508957FD088F09F5790F0B92F99274F
:100AB000B751A0F0D1F0660F771F881F991F1AF069
:100AC000BA95C9F712C0B13081F086D0B1E008956F
:100AD00083C0672F782F8827B85F39F0B93FCCF3F0
:100AE000869577956795B395D9F73EF4909580955F
:100AF000709561957F4F8F4F9F4F0895990F000814
:100B0000550FAA0BE0E8FEEF16161706E807F907DF
:100B1000C0F012161306E407F50798F0621B730B7A
:100B2000840B950B39F40A2661F0232B242B252BFB
:100B300021F408950A2609F4A140A6958FEF811D9E
:100B4000811D089597F99F6780E870E060E008953F
:100B50009FEF80EC089500240A94161617061806D5
:100B60000906089500240A941216130614060506B1
:100B70000895092E0394000C11F4882352F0BB0F42
:100B800040F4BF2B11F460FF04C06F5F7F4F8F4FA5
:100B90009F4F089557FD9058440F551F59F05F3FE0
:100BA00071F04795880F97FB991F61F09F3F79F08F
:100BB00087950895121613061406551FF2CF469511
:100BC000F1DF08C0161617061806991FF1CF869593
:100BD0007105610508940895E894BB276627772777
:100BE000CB0197F908958ADF08F48FEF08950BD0B1
:100BF000C0CFB1DF28F0B6DF18F0952309F0A2CFFF
:100C0000A7CF1124EACFC6DFA0F3959FD1F3950FAC
:100C100050E0551F629FF001729FBB27F00DB11D80
:100C2000639FAA27F00DB11DAA1F649F6627B00D10
:100C3000A11D661F829F2227B00DA11D621F739FF9
:100C4000B00DA11D621F839FA00D611D221F749F07
:100C50003327A00D611D231F849F600D211D822F4E
:100C6000762F6A2F11249F5750408AF0E1F0882395
:100C70004AF0EE0FFF1FBB1F661F771F881F9150A2
:100C80005040A9F79E3F510570F05CCFA6CF5F3F63
:100C9000ECF3983EDCF3869577956795B795F795D5
:100CA000E7959F5FC1F7FE2B880F911D969587955D
:100CB00097F9089597FB092E07260AD077FD04D0EF
:100CC0000CD006D000201AF4709561957F4F0895DE
:100CD000F6F7909581959F4F0895AA1BBB1B51E194
:100CE00007C0AA1FBB1FA617B70710F0A61BB70B9C
:100CF000881F991F5A95A9F780959095BC01CD0141
:060D00000895F894FFCFF6
:100D06003F0006005B004F0066006D007D00070097
:040D16007F006F00EB
:00000001FF
